{
  "_format": "hh-sol-artifact-1",
  "contractName": "MockUSDT",
  "sourceName": "contracts/MockUSDT.sol",
  "abi": [
    {
      "inputs": [],
      "stateMutability": "nonpayable",
      "type": "constructor"
    },
    {
      "inputs": [
        {
          "internalType": "address",
          "name": "spender",
          "type": "address"
        },
        {
          "internalType": "uint256",
          "name": "allowance",
          "type": "uint256"
        },
        {
          "internalType": "uint256",
          "name": "needed",
          "type": "uint256"
        }
      ],
      "name": "ERC20InsufficientAllowance",
      "type": "error"
    },
    {
      "inputs": [
        {
          "internalType": "address",
          "name": "sender",
          "type": "address"
        },
        {
          "internalType": "uint256",
          "name": "balance",
          "type": "uint256"
        },
        {
          "internalType": "uint256",
          "name": "needed",
          "type": "uint256"
        }
      ],
      "name": "ERC20InsufficientBalance",
      "type": "error"
    },
    {
      "inputs": [
        {
          "internalType": "address",
          "name": "approver",
          "type": "address"
        }
      ],
      "name": "ERC20InvalidApprover",
      "type": "error"
    },
    {
      "inputs": [
        {
          "internalType": "address",
          "name": "receiver",
          "type": "address"
        }
      ],
      "name": "ERC20InvalidReceiver",
      "type": "error"
    },
    {
      "inputs": [
        {
          "internalType": "address",
          "name": "sender",
          "type": "address"
        }
      ],
      "name": "ERC20InvalidSender",
      "type": "error"
    },
    {
      "inputs": [
        {
          "internalType": "address",
          "name": "spender",
          "type": "address"
        }
      ],
      "name": "ERC20InvalidSpender",
      "type": "error"
    },
    {
      "anonymous": false,
      "inputs": [
        {
          "indexed": true,
          "internalType": "address",
          "name": "owner",
          "type": "address"
        },
        {
          "indexed": true,
          "internalType": "address",
          "name": "spender",
          "type": "address"
        },
        {
          "indexed": false,
          "internalType": "uint256",
          "name": "value",
          "type": "uint256"
        }
      ],
      "name": "Approval",
      "type": "event"
    },
    {
      "anonymous": false,
      "inputs": [
        {
          "indexed": true,
          "internalType": "address",
          "name": "from",
          "type": "address"
        },
        {
          "indexed": true,
          "internalType": "address",
          "name": "to",
          "type": "address"
        },
        {
          "indexed": false,
          "internalType": "uint256",
          "name": "value",
          "type": "uint256"
        }
      ],
      "name": "Transfer",
      "type": "event"
    },
    {
      "inputs": [
        {
          "internalType": "address",
          "name": "owner",
          "type": "address"
        },
        {
          "internalType": "address",
          "name": "spender",
          "type": "address"
        }
      ],
      "name": "allowance",
      "outputs": [
        {
          "internalType": "uint256",
          "name": "",
          "type": "uint256"
        }
      ],
      "stateMutability": "view",
      "type": "function"
    },
    {
      "inputs": [
        {
          "internalType": "address",
          "name": "spender",
          "type": "address"
        },
        {
          "internalType": "uint256",
          "name": "value",
          "type": "uint256"
        }
      ],
      "name": "approve",
      "outputs": [
        {
          "internalType": "bool",
          "name": "",
          "type": "bool"
        }
      ],
      "stateMutability": "nonpayable",
      "type": "function"
    },
    {
      "inputs": [
        {
          "internalType": "address",
          "name": "account",
          "type": "address"
        }
      ],
      "name": "balanceOf",
      "outputs": [
        {
          "internalType": "uint256",
          "name": "",
          "type": "uint256"
        }
      ],
      "stateMutability": "view",
      "type": "function"
    },
    {
      "inputs": [],
      "name": "decimals",
      "outputs": [
        {
          "internalType": "uint8",
          "name": "",
          "type": "uint8"
        }
      ],
      "stateMutability": "pure",
      "type": "function"
    },
    {
      "inputs": [],
      "name": "faucet",
      "outputs": [],
      "stateMutability": "nonpayable",
      "type": "function"
    },
    {
      "inputs": [
        {
          "internalType": "address",
          "name": "to",
          "type": "address"
        },
        {
          "internalType": "uint256",
          "name": "amount",
          "type": "uint256"
        }
      ],
      "name": "mint",
      "outputs": [],
      "stateMutability": "nonpayable",
      "type": "function"
    },
    {
      "inputs": [],
      "name": "name",
      "outputs": [
        {
          "internalType": "string",
          "name": "",
          "type": "string"
        }
      ],
      "stateMutability": "view",
      "type": "function"
    },
    {
      "inputs": [],
      "name": "symbol",
      "outputs": [
        {
          "internalType": "string",
          "name": "",
          "type": "string"
        }
      ],
      "stateMutability": "view",
      "type": "function"
    },
    {
      "inputs": [],
      "name": "totalSupply",
      "outputs": [
        {
          "internalType": "uint256",
          "name": "",
          "type": "uint256"
        }
      ],
      "stateMutability": "view",
      "type": "function"
    },
    {
      "inputs": [
        {
          "internalType": "address",
          "name": "to",
          "type": "address"
        },
        {
          "internalType": "uint256",
          "name": "value",
          "type": "uint256"
        }
      ],
      "name": "transfer",
      "outputs": [
        {
          "internalType": "bool",
          "name": "",
          "type": "bool"
        }
      ],
      "stateMutability": "nonpayable",
      "type": "function"
    },
    {
      "inputs": [
        {
          "internalType": "address",
          "name": "from",
          "type": "address"
        },
        {
          "internalType": "address",
          "name": "to",
          "type": "address"
        },
        {
          "internalType": "uint256",
          "name": "value",
          "type": "uint256"
        }
      ],
      "name": "transferFrom",
      "outputs": [
        {
          "internalType": "bool",
          "name": "",
          "type": "bool"
        }
      ],
      "stateMutability": "nonpayable",
      "type": "function"
    }
  ],
  "bytecode": "0x60806040523480156200001157600080fd5b506040518060400160405280600a81526020016915195d1a195c881554d160b21b815250604051806040016040528060048152602001631554d11560e21b8152508160039081620000639190620002bf565b506004620000728282620002bf565b5050506200009f336006600a6200008a9190620004a0565b6200009990620f4240620004b8565b620000a5565b620004e8565b6001600160a01b038216620000d55760405163ec442f0560e01b8152600060048201526024015b60405180910390fd5b620000e360008383620000e7565b5050565b6001600160a01b038316620001165780600260008282546200010a9190620004d2565b909155506200018a9050565b6001600160a01b038316600090815260208190526040902054818110156200016b5760405163391434e360e21b81526001600160a01b03851660048201526024810182905260448101839052606401620000cc565b6001600160a01b03841660009081526020819052604090209082900390555b6001600160a01b038216620001a857600280548290039055620001c7565b6001600160a01b03821660009081526020819052604090208054820190555b816001600160a01b0316836001600160a01b03167fddf252ad1be2c89b69c2b068fc378daa952ba7f163c4a11628f55a4df523b3ef836040516200020d91815260200190565b60405180910390a3505050565b634e487b7160e01b600052604160045260246000fd5b600181811c908216806200024557607f821691505b6020821081036200026657634e487b7160e01b600052602260045260246000fd5b50919050565b601f821115620002ba57600081815260208120601f850160051c81016020861015620002955750805b601f850160051c820191505b81811015620002b657828155600101620002a1565b5050505b505050565b81516001600160401b03811115620002db57620002db6200021a565b620002f381620002ec845462000230565b846200026c565b602080601f8311600181146200032b5760008415620003125750858301515b600019600386901b1c1916600185901b178555620002b6565b600085815260208120601f198616915b828110156200035c578886015182559484019460019091019084016200033b565b50858210156200037b5787850151600019600388901b60f8161c191681555b5050505050600190811b01905550565b634e487b7160e01b600052601160045260246000fd5b600181815b80851115620003e2578160001904821115620003c657620003c66200038b565b80851615620003d457918102915b93841c9390800290620003a6565b509250929050565b600082620003fb575060016200049a565b816200040a575060006200049a565b81600181146200042357600281146200042e576200044e565b60019150506200049a565b60ff8411156200044257620004426200038b565b50506001821b6200049a565b5060208310610133831016604e8410600b841016171562000473575081810a6200049a565b6200047f8383620003a1565b80600019048211156200049657620004966200038b565b0290505b92915050565b6000620004b160ff841683620003ea565b9392505050565b80820281158282048414176200049a576200049a6200038b565b808201808211156200049a576200049a6200038b565b6108cd80620004f86000396000f3fe608060405234801561001057600080fd5b50600436106100a95760003560e01c806340c10f191161007157806340c10f191461012357806370a082311461013857806395d89b4114610161578063a9059cbb14610169578063dd62ed3e1461017c578063de5f72fd146101b557600080fd5b806306fdde03146100ae578063095ea7b3146100cc57806318160ddd146100ef57806323b872dd14610101578063313ce56714610114575b600080fd5b6100b66101bd565b6040516100c39190610605565b60405180910390f35b6100df6100da36600461066f565b61024f565b60405190151581526020016100c3565b6002545b6040519081526020016100c3565b6100df61010f366004610699565b610269565b604051600681526020016100c3565b61013661013136600461066f565b61028d565b005b6100f36101463660046106d5565b6001600160a01b031660009081526020819052604090205490565b6100b661029b565b6100df61017736600461066f565b6102aa565b6100f361018a3660046106f7565b6001600160a01b03918216600090815260016020908152604080832093909416825291909152205490565b6101366102b8565b6060600380546101cc9061072a565b80601f01602080910402602001604051908101604052809291908181526020018280546101f89061072a565b80156102455780601f1061021a57610100808354040283529160200191610245565b820191906000526020600020905b81548152906001019060200180831161022857829003601f168201915b5050505050905090565b60003361025d8185856102db565b60019150505b92915050565b6000336102778582856102ed565b610282858585610371565b506001949350505050565b61029782826103d0565b5050565b6060600480546101cc9061072a565b60003361025d818585610371565b6102d9336102c86006600a61085e565b6102d49061271061086d565b6103d0565b565b6102e88383836001610406565b505050565b6001600160a01b0383811660009081526001602090815260408083209386168352929052205460001981101561036b578181101561035c57604051637dc7a0d960e11b81526001600160a01b038416600482015260248101829052604481018390526064015b60405180910390fd5b61036b84848484036000610406565b50505050565b6001600160a01b03831661039b57604051634b637e8f60e11b815260006004820152602401610353565b6001600160a01b0382166103c55760405163ec442f0560e01b815260006004820152602401610353565b6102e88383836104db565b6001600160a01b0382166103fa5760405163ec442f0560e01b815260006004820152602401610353565b610297600083836104db565b6001600160a01b0384166104305760405163e602df0560e01b815260006004820152602401610353565b6001600160a01b03831661045a57604051634a1406b160e11b815260006004820152602401610353565b6001600160a01b038085166000908152600160209081526040808320938716835292905220829055801561036b57826001600160a01b0316846001600160a01b03167f8c5be1e5ebec7d5bd14f71427d1e84f3dd0314c0f7b2291e5b200ac8c7c3b925846040516104cd91815260200190565b60405180910390a350505050565b6001600160a01b0383166105065780600260008282546104fb9190610884565b909155506105789050565b6001600160a01b038316600090815260208190526040902054818110156105595760405163391434e360e21b81526001600160a01b03851660048201526024810182905260448101839052606401610353565b6001600160a01b03841660009081526020819052604090209082900390555b6001600160a01b038216610594576002805482900390556105b3565b6001600160a01b03821660009081526020819052604090208054820190555b816001600160a01b0316836001600160a01b03167fddf252ad1be2c89b69c2b068fc378daa952ba7f163c4a11628f55a4df523b3ef836040516105f891815260200190565b60405180910390a3505050565b600060208083528351808285015260005b8181101561063257858101830151858201604001528201610616565b506000604082860101526040601f19601f8301168501019250505092915050565b80356001600160a01b038116811461066a57600080fd5b919050565b6000806040838503121561068257600080fd5b61068b83610653565b946020939093013593505050565b6000806000606084860312156106ae57600080fd5b6106b784610653565b92506106c560208501610653565b9150604084013590509250925092565b6000602082840312156106e757600080fd5b6106f082610653565b9392505050565b6000806040838503121561070a57600080fd5b61071383610653565b915061072160208401610653565b90509250929050565b600181811c9082168061073e57607f821691505b60208210810361075e57634e487b7160e01b600052602260045260246000fd5b50919050565b634e487b7160e01b600052601160045260246000fd5b600181815b808511156107b557816000190482111561079b5761079b610764565b808516156107a857918102915b93841c939080029061077f565b509250929050565b6000826107cc57506001610263565b816107d957506000610263565b81600181146107ef57600281146107f957610815565b6001915050610263565b60ff84111561080a5761080a610764565b50506001821b610263565b5060208310610133831016604e8410600b8410161715610838575081810a610263565b610842838361077a565b806000190482111561085657610856610764565b029392505050565b60006106f060ff8416836107bd565b808202811582820484141761026357610263610764565b808201808211156102635761026361076456fea2646970667358221220baf0978de8a0a5d8fbceb2ffd717a638bd33fa2e97ef524083af993a16a3b93864736f6c63430008140033",
  "linkReferences": {},
  "deployedLinkReferences": {}
}