{
  "_format": "hh-sol-artifact-1",
  "contractName": "BillingRegistry",
  "sourceName": "contracts/BillingRegistry.sol",
  "abi": [
    {
      "inputs": [],
      "stateMutability": "nonpayable",
      "type": "constructor"
    },
    {
      "inputs": [
        {
          "internalType": "address",
          "name": "owner",
          "type": "address"
        }
      ],
      "name": "OwnableInvalidOwner",
      "type": "error"
    },
    {
      "inputs": [
        {
          "internalType": "address",
          "name": "account",
          "type": "address"
        }
      ],
      "name": "OwnableUnauthorizedAccount",
      "type": "error"
    },
    {
      "inputs": [],
      "name": "ReentrancyGuardReentrantCall",
      "type": "error"
    },
    {
      "anonymous": false,
      "inputs": [
        {
          "indexed": true,
          "internalType": "address",
          "name": "previousOwner",
          "type": "address"
        },
        {
          "indexed": true,
          "internalType": "address",
          "name": "newOwner",
          "type": "address"
        }
      ],
      "name": "OwnershipTransferred",
      "type": "event"
    },
    {
      "anonymous": false,
      "inputs": [
        {
          "indexed": false,
          "internalType": "address",
          "name": "newContract",
          "type": "address"
        }
      ],
      "name": "PaymentStreamContractUpdated",
      "type": "event"
    },
    {
      "anonymous": false,
      "inputs": [
        {
          "indexed": true,
          "internalType": "bytes32",
          "name": "serviceId",
          "type": "bytes32"
        },
        {
          "indexed": true,
          "internalType": "address",
          "name": "consumer",
          "type": "address"
        },
        {
          "indexed": false,
          "internalType": "uint256",
          "name": "amount",
          "type": "uint256"
        },
        {
          "indexed": false,
          "internalType": "bool",
          "name": "isStream",
          "type": "bool"
        }
      ],
      "name": "ServiceConsumed",
      "type": "event"
    },
    {
      "anonymous": false,
      "inputs": [
        {
          "indexed": true,
          "internalType": "bytes32",
          "name": "serviceId",
          "type": "bytes32"
        },
        {
          "indexed": true,
          "internalType": "address",
          "name": "consumer",
          "type": "address"
        },
        {
          "indexed": false,
          "internalType": "uint8",
          "name": "rating",
          "type": "uint8"
        }
      ],
      "name": "ServiceRated",
      "type": "event"
    },
    {
      "anonymous": false,
      "inputs": [
        {
          "indexed": true,
          "internalType": "bytes32",
          "name": "serviceId",
          "type": "bytes32"
        },
        {
          "indexed": true,
          "internalType": "address",
          "name": "provider",
          "type": "address"
        },
        {
          "indexed": false,
          "internalType": "string",
          "name": "name",
          "type": "string"
        },
        {
          "indexed": false,
          "internalType": "enum BillingRegistry.BillingType",
          "name": "billingType",
          "type": "uint8"
        },
        {
          "indexed": false,
          "internalType": "uint256",
          "name": "rate",
          "type": "uint256"
        }
      ],
      "name": "ServiceRegistered",
      "type": "event"
    },
    {
      "anonymous": false,
      "inputs": [
        {
          "indexed": true,
          "internalType": "bytes32",
          "name": "serviceId",
          "type": "bytes32"
        },
        {
          "indexed": false,
          "internalType": "uint256",
          "name": "newRate",
          "type": "uint256"
        },
        {
          "indexed": false,
          "internalType": "bool",
          "name": "isActive",
          "type": "bool"
        }
      ],
      "name": "ServiceUpdated",
      "type": "event"
    },
    {
      "inputs": [
        {
          "internalType": "uint256",
          "name": "",
          "type": "uint256"
        }
      ],
      "name": "activeServiceIds",
      "outputs": [
        {
          "internalType": "bytes32",
          "name": "",
          "type": "bytes32"
        }
      ],
      "stateMutability": "view",
      "type": "function"
    },
    {
      "inputs": [
        {
          "internalType": "bytes32",
          "name": "serviceId",
          "type": "bytes32"
        },
        {
          "internalType": "uint256",
          "name": "durationOrQuantity",
          "type": "uint256"
        }
      ],
      "name": "calculateCost",
      "outputs": [
        {
          "internalType": "uint256",
          "name": "",
          "type": "uint256"
        }
      ],
      "stateMutability": "view",
      "type": "function"
    },
    {
      "inputs": [
        {
          "internalType": "address",
          "name": "",
          "type": "address"
        },
        {
          "internalType": "uint256",
          "name": "",
          "type": "uint256"
        }
      ],
      "name": "consumerHistory",
      "outputs": [
        {
          "internalType": "bytes32",
          "name": "serviceId",
          "type": "bytes32"
        },
        {
          "internalType": "address",
          "name": "consumer",
          "type": "address"
        },
        {
          "internalType": "uint256",
          "name": "startTime",
          "type": "uint256"
        },
        {
          "internalType": "uint256",
          "name": "endTime",
          "type": "uint256"
        },
        {
          "internalType": "uint256",
          "name": "amountPaid",
          "type": "uint256"
        },
        {
          "internalType": "bool",
          "name": "isStream",
          "type": "bool"
        }
      ],
      "stateMutability": "view",
      "type": "function"
    },
    {
      "inputs": [
        {
          "internalType": "uint256",
          "name": "offset",
          "type": "uint256"
        },
        {
          "internalType": "uint256",
          "name": "limit",
          "type": "uint256"
        }
      ],
      "name": "getActiveServices",
      "outputs": [
        {
          "internalType": "bytes32[]",
          "name": "",
          "type": "bytes32[]"
        }
      ],
      "stateMutability": "view",
      "type": "function"
    },
    {
      "inputs": [
        {
          "internalType": "bytes32",
          "name": "serviceId",
          "type": "bytes32"
        }
      ],
      "name": "getAverageRating",
      "outputs": [
        {
          "internalType": "uint256",
          "name": "",
          "type": "uint256"
        }
      ],
      "stateMutability": "view",
      "type": "function"
    },
    {
      "inputs": [
        {
          "internalType": "address",
          "name": "consumer",
          "type": "address"
        }
      ],
      "name": "getConsumerHistory",
      "outputs": [
        {
          "components": [
            {
              "internalType": "bytes32",
              "name": "serviceId",
              "type": "bytes32"
            },
            {
              "internalType": "address",
              "name": "consumer",
              "type": "address"
            },
            {
              "internalType": "uint256",
              "name": "startTime",
              "type": "uint256"
            },
            {
              "internalType": "uint256",
              "name": "endTime",
              "type": "uint256"
            },
            {
              "internalType": "uint256",
              "name": "amountPaid",
              "type": "uint256"
            },
            {
              "internalType": "bool",
              "name": "isStream",
              "type": "bool"
            }
          ],
          "internalType": "struct BillingRegistry.UsageRecord[]",
          "name": "",
          "type": "tuple[]"
        }
      ],
      "stateMutability": "view",
      "type": "function"
    },
    {
      "inputs": [],
      "name": "getMarketplaceStats",
      "outputs": [
        {
          "internalType": "uint256",
          "name": "totalServices",
          "type": "uint256"
        },
        {
          "internalType": "uint256",
          "name": "totalVolume",
          "type": "uint256"
        },
        {
          "internalType": "uint256",
          "name": "totalProviders",
          "type": "uint256"
        }
      ],
      "stateMutability": "view",
      "type": "function"
    },
    {
      "inputs": [
        {
          "internalType": "address",
          "name": "provider",
          "type": "address"
        }
      ],
      "name": "getProviderServices",
      "outputs": [
        {
          "internalType": "bytes32[]",
          "name": "",
          "type": "bytes32[]"
        }
      ],
      "stateMutability": "view",
      "type": "function"
    },
    {
      "inputs": [
        {
          "internalType": "bytes32",
          "name": "serviceId",
          "type": "bytes32"
        }
      ],
      "name": "getService",
      "outputs": [
        {
          "components": [
            {
              "internalType": "bytes32",
              "name": "serviceId",
              "type": "bytes32"
            },
            {
              "internalType": "address",
              "name": "provider",
              "type": "address"
            },
            {
              "internalType": "string",
              "name": "name",
              "type": "string"
            },
            {
              "internalType": "string",
              "name": "description",
              "type": "string"
            },
            {
              "internalType": "string",
              "name": "endpoint",
              "type": "string"
            },
            {
              "internalType": "enum BillingRegistry.BillingType",
              "name": "billingType",
              "type": "uint8"
            },
            {
              "internalType": "uint256",
              "name": "rate",
              "type": "uint256"
            },
            {
              "internalType": "uint256",
              "name": "minDuration",
              "type": "uint256"
            },
            {
              "internalType": "uint256",
              "name": "maxDuration",
              "type": "uint256"
            },
            {
              "internalType": "bool",
              "name": "isActive",
              "type": "bool"
            },
            {
              "internalType": "uint256",
              "name": "totalEarned",
              "type": "uint256"
            },
            {
              "internalType": "uint256",
              "name": "totalRequests",
              "type": "uint256"
            },
            {
              "internalType": "uint256",
              "name": "ratingSum",
              "type": "uint256"
            },
            {
              "internalType": "uint256",
              "name": "ratingCount",
              "type": "uint256"
            },
            {
              "internalType": "string[]",
              "name": "tags",
              "type": "string[]"
            }
          ],
          "internalType": "struct BillingRegistry.Service",
          "name": "",
          "type": "tuple"
        }
      ],
      "stateMutability": "view",
      "type": "function"
    },
    {
      "inputs": [
        {
          "internalType": "string",
          "name": "tag",
          "type": "string"
        }
      ],
      "name": "getServicesByTag",
      "outputs": [
        {
          "internalType": "bytes32[]",
          "name": "",
          "type": "bytes32[]"
        }
      ],
      "stateMutability": "view",
      "type": "function"
    },
    {
      "inputs": [],
      "name": "minServiceRate",
      "outputs": [
        {
          "internalType": "uint256",
          "name": "",
          "type": "uint256"
        }
      ],
      "stateMutability": "view",
      "type": "function"
    },
    {
      "inputs": [],
      "name": "owner",
      "outputs": [
        {
          "internalType": "address",
          "name": "",
          "type": "address"
        }
      ],
      "stateMutability": "view",
      "type": "function"
    },
    {
      "inputs": [],
      "name": "paymentStreamContract",
      "outputs": [
        {
          "internalType": "address",
          "name": "",
          "type": "address"
        }
      ],
      "stateMutability": "view",
      "type": "function"
    },
    {
      "inputs": [],
      "name": "platformFeeBps",
      "outputs": [
        {
          "internalType": "uint256",
          "name": "",
          "type": "uint256"
        }
      ],
      "stateMutability": "view",
      "type": "function"
    },
    {
      "inputs": [
        {
          "internalType": "address",
          "name": "",
          "type": "address"
        }
      ],
      "name": "providerEarnings",
      "outputs": [
        {
          "internalType": "uint256",
          "name": "",
          "type": "uint256"
        }
      ],
      "stateMutability": "view",
      "type": "function"
    },
    {
      "inputs": [
        {
          "internalType": "address",
          "name": "",
          "type": "address"
        },
        {
          "internalType": "uint256",
          "name": "",
          "type": "uint256"
        }
      ],
      "name": "providerServices",
      "outputs": [
        {
          "internalType": "bytes32",
          "name": "",
          "type": "bytes32"
        }
      ],
      "stateMutability": "view",
      "type": "function"
    },
    {
      "inputs": [
        {
          "internalType": "bytes32",
          "name": "serviceId",
          "type": "bytes32"
        },
        {
          "internalType": "uint8",
          "name": "rating",
          "type": "uint8"
        }
      ],
      "name": "rateService",
      "outputs": [],
      "stateMutability": "nonpayable",
      "type": "function"
    },
    {
      "inputs": [
        {
          "internalType": "bytes32",
          "name": "serviceId",
          "type": "bytes32"
        },
        {
          "internalType": "address",
          "name": "consumer",
          "type": "address"
        },
        {
          "internalType": "uint256",
          "name": "amount",
          "type": "uint256"
        },
        {
          "internalType": "bool",
          "name": "isStream",
          "type": "bool"
        },
        {
          "internalType": "uint256",
          "name": "startTime",
          "type": "uint256"
        },
        {
          "internalType": "uint256",
          "name": "endTime",
          "type": "uint256"
        }
      ],
      "name": "recordConsumption",
      "outputs": [],
      "stateMutability": "nonpayable",
      "type": "function"
    },
    {
      "inputs": [
        {
          "internalType": "string",
          "name": "name",
          "type": "string"
        },
        {
          "internalType": "string",
          "name": "description",
          "type": "string"
        },
        {
          "internalType": "string",
          "name": "endpoint",
          "type": "string"
        },
        {
          "internalType": "enum BillingRegistry.BillingType",
          "name": "billingType",
          "type": "uint8"
        },
        {
          "internalType": "uint256",
          "name": "rate",
          "type": "uint256"
        },
        {
          "internalType": "uint256",
          "name": "minDuration",
          "type": "uint256"
        },
        {
          "internalType": "uint256",
          "name": "maxDuration",
          "type": "uint256"
        },
        {
          "internalType": "string[]",
          "name": "tags",
          "type": "string[]"
        }
      ],
      "name": "registerService",
      "outputs": [
        {
          "internalType": "bytes32",
          "name": "serviceId",
          "type": "bytes32"
        }
      ],
      "stateMutability": "nonpayable",
      "type": "function"
    },
    {
      "inputs": [],
      "name": "renounceOwnership",
      "outputs": [],
      "stateMutability": "nonpayable",
      "type": "function"
    },
    {
      "inputs": [
        {
          "internalType": "string",
          "name": "keyword",
          "type": "string"
        }
      ],
      "name": "searchServices",
      "outputs": [
        {
          "internalType": "bytes32[]",
          "name": "",
          "type": "bytes32[]"
        }
      ],
      "stateMutability": "view",
      "type": "function"
    },
    {
      "inputs": [
        {
          "internalType": "bytes32",
          "name": "",
          "type": "bytes32"
        }
      ],
      "name": "services",
      "outputs": [
        {
          "internalType": "bytes32",
          "name": "serviceId",
          "type": "bytes32"
        },
        {
          "internalType": "address",
          "name": "provider",
          "type": "address"
        },
        {
          "internalType": "string",
          "name": "name",
          "type": "string"
        },
        {
          "internalType": "string",
          "name": "description",
          "type": "string"
        },
        {
          "internalType": "string",
          "name": "endpoint",
          "type": "string"
        },
        {
          "internalType": "enum BillingRegistry.BillingType",
          "name": "billingType",
          "type": "uint8"
        },
        {
          "internalType": "uint256",
          "name": "rate",
          "type": "uint256"
        },
        {
          "internalType": "uint256",
          "name": "minDuration",
          "type": "uint256"
        },
        {
          "internalType": "uint256",
          "name": "maxDuration",
          "type": "uint256"
        },
        {
          "internalType": "bool",
          "name": "isActive",
          "type": "bool"
        },
        {
          "internalType": "uint256",
          "name": "totalEarned",
          "type": "uint256"
        },
        {
          "internalType": "uint256",
          "name": "totalRequests",
          "type": "uint256"
        },
        {
          "internalType": "uint256",
          "name": "ratingSum",
          "type": "uint256"
        },
        {
          "internalType": "uint256",
          "name": "ratingCount",
          "type": "uint256"
        }
      ],
      "stateMutability": "view",
      "type": "function"
    },
    {
      "inputs": [
        {
          "internalType": "uint256",
          "name": "newMin",
          "type": "uint256"
        }
      ],
      "name": "setMinServiceRate",
      "outputs": [],
      "stateMutability": "nonpayable",
      "type": "function"
    },
    {
      "inputs": [
        {
          "internalType": "address",
          "name": "_contract",
          "type": "address"
        }
      ],
      "name": "setPaymentStreamContract",
      "outputs": [],
      "stateMutability": "nonpayable",
      "type": "function"
    },
    {
      "inputs": [
        {
          "internalType": "string",
          "name": "",
          "type": "string"
        }
      ],
      "name": "standardServices",
      "outputs": [
        {
          "internalType": "bytes32",
          "name": "",
          "type": "bytes32"
        }
      ],
      "stateMutability": "view",
      "type": "function"
    },
    {
      "inputs": [
        {
          "internalType": "string",
          "name": "",
          "type": "string"
        },
        {
          "internalType": "uint256",
          "name": "",
          "type": "uint256"
        }
      ],
      "name": "tagIndex",
      "outputs": [
        {
          "internalType": "bytes32",
          "name": "",
          "type": "bytes32"
        }
      ],
      "stateMutability": "view",
      "type": "function"
    },
    {
      "inputs": [],
      "name": "totalServices",
      "outputs": [
        {
          "internalType": "uint256",
          "name": "",
          "type": "uint256"
        }
      ],
      "stateMutability": "view",
      "type": "function"
    },
    {
      "inputs": [
        {
          "internalType": "address",
          "name": "newOwner",
          "type": "address"
        }
      ],
      "name": "transferOwnership",
      "outputs": [],
      "stateMutability": "nonpayable",
      "type": "function"
    },
    {
      "inputs": [
        {
          "internalType": "bytes32",
          "name": "serviceId",
          "type": "bytes32"
        },
        {
          "internalType": "uint256",
          "name": "newRate",
          "type": "uint256"
        },
        {
          "internalType": "bool",
          "name": "isActive",
          "type": "bool"
        },
        {
          "internalType": "string",
          "name": "newDescription",
          "type": "string"
        },
        {
          "internalType": "string",
          "name": "newEndpoint",
          "type": "string"
        }
      ],
      "name": "updateService",
      "outputs": [],
      "stateMutability": "nonpayable",
      "type": "function"
    }
  ],
  "bytecode": "0x6080604052620f42406009556019600a553480156200001d57600080fd5b5033806200004557604051631e4fbdf760e01b81526000600482015260240160405180910390fd5b62000050816200007b565b5060017f9b779b17422d0df92223018b32b4d1fa46e071723d6817e2486d003becc55f0055620000cb565b600080546001600160a01b038381166001600160a01b0319831681178455604051919092169283917f8be0079c531659141344cd1fd0a4f28419497f9722a3daafe3b4186f6b6457e09190a35050565b612c5880620000db6000396000f3fe608060405234801561001057600080fd5b50600436106101cf5760003560e01c8063715018a611610104578063bf009230116100a2578063ee3e1a0e11610071578063ee3e1a0e14610442578063f0609f3514610455578063f2fde38b14610468578063fa2114c51461047b57600080fd5b8063bf009230146103b2578063bf00fae3146103fc578063ce8cce7f1461040f578063da47d8561461042257600080fd5b80639363104f116100de5780639363104f146103595780639747ac5f1461036c5780639fa3a5701461037f578063a8dd46d01461039f57600080fd5b8063715018a614610309578063812d966a146103115780638da5cb5b1461033457600080fd5b80632f0adf9111610171578063530310401161014b57806353031040146102ba5780635e56198e146102cd5780636301ac8f146102e05780636e9b0d6d146102e957600080fd5b80632f0adf911461028b5780634a9df43d1461029e57806351408de3146102a757600080fd5b8063159a6594116101ad578063159a65941461023a5780631f0b70ed1461025a57806322dcd13e1461026f5780632733aec91461027857600080fd5b806303731b9e146101d45780630a790eb7146101fa5780630cd32e5314610227575b600080fd5b6101e76101e2366004611fd6565b6104a6565b6040519081526020015b60405180910390f35b61020d610208366004612000565b6104d7565b6040516101f19e9d9c9b9a99989796959493929190612097565b6101e76102353660046121e3565b6106ea565b6101e76102483660046122ea565b60046020526000908152604090205481565b61026d610268366004612000565b610b72565b005b6101e7600a5481565b6101e76102863660046123ba565b610b7f565b61026d61029936600461240e565b610baa565b6101e760095481565b6101e76102b53660046124a1565b610cdd565b6101e76102c8366004612000565b610d54565b61026d6102db3660046122ea565b610d91565b6101e760075481565b6102fc6102f73660046124c3565b610e35565b6040516101f19190612504565b61026d610ea8565b610319610ebc565b604080519384526020840192909252908201526060016101f1565b6000546001600160a01b03165b6040516001600160a01b0390911681526020016101f1565b61026d610367366004612548565b611072565b6102fc61037a3660046122ea565b611299565b61039261038d3660046122ea565b611305565b6040516101f191906125a0565b61026d6103ad366004612623565b6113be565b6103c56103c0366004611fd6565b611598565b604080519687526001600160a01b0390951660208701529385019290925260608401526080830152151560a082015260c0016101f1565b6102fc61040a3660046124a1565b6115f9565b6102fc61041d3660046124c3565b6116d3565b610435610430366004612000565b61193d565b6040516101f191906126a1565b6101e7610450366004612000565b611ca8565b600854610341906001600160a01b031681565b61026d6104763660046122ea565b611cc9565b6101e76104893660046127ca565b8051602081830181018051600b8252928201919093012091525481565b600260205281600052604060002081815481106104c257600080fd5b90600052602060002001600091509150505481565b60016020819052600091825260409091208054918101546002820180546001600160a01b03909216929161050a906127fe565b80601f0160208091040260200160405190810160405280929190818152602001828054610536906127fe565b80156105835780601f1061055857610100808354040283529160200191610583565b820191906000526020600020905b81548152906001019060200180831161056657829003601f168201915b505050505090806003018054610598906127fe565b80601f01602080910402602001604051908101604052809291908181526020018280546105c4906127fe565b80156106115780601f106105e657610100808354040283529160200191610611565b820191906000526020600020905b8154815290600101906020018083116105f457829003601f168201915b505050505090806004018054610626906127fe565b80601f0160208091040260200160405190810160405280929190818152602001828054610652906127fe565b801561069f5780601f106106745761010080835404028352916020019161069f565b820191906000526020600020905b81548152906001019060200180831161068257829003601f168201915b5050505060058301546006840154600785015460088601546009870154600a880154600b890154600c8a0154600d909a0154989960ff9788169996985094969395939092169390928e565b60008b61072e5760405162461bcd60e51b815260206004820152600d60248201526c13985b59481c995c5d5a5c9959609a1b60448201526064015b60405180910390fd5b60095486101561076f5760405162461bcd60e51b815260206004820152600c60248201526b5261746520746f6f206c6f7760a01b6044820152606401610725565b848410156107b35760405162461bcd60e51b8152602060048201526011602482015270496e76616c6964206475726174696f6e7360781b6044820152606401610725565b338d8d426007546040516020016107ce959493929190612838565b604051602081830303815290604052805190602001209050604051806101e00160405280828152602001336001600160a01b031681526020018e8e8080601f016020809104026020016040519081016040528093929190818152602001838380828437600092019190915250505090825250604080516020601f8f018190048102820181019092528d815291810191908e908e9081908401838280828437600092019190915250505090825250604080516020601f8d018190048102820181019092528b815291810191908c908c90819084018382808284376000920191909152505050908252506020018860048111156108cb576108cb61205f565b815260200187815260200186815260200185815260200160011515815260200160008152602001600081526020016000815260200160008152602001848490610914919061286d565b9052600082815260016020818152604092839020845181559084015191810180546001600160a01b0319166001600160a01b0390931692909217909155908201516002820190610964908261293f565b5060608201516003820190610979908261293f565b506080820151600482019061098e908261293f565b5060a082015160058201805460ff191660018360048111156109b2576109b261205f565b021790555060c0820151600682015560e08201516007820155610100820151600882015561012082015160098201805460ff1916911515919091179055610140820151600a820155610160820151600b820155610180820151600c8201556101a0820151600d8201556101c08201518051610a3791600e840191602090910190611e68565b5050336000908152600260209081526040822080546001818101835591845291832090910184905560068054918201815582527ff652222313e28459528d920b65115c16c04f3efc82aaedc97be59f3f377c0d3f0183905590505b82811015610b04576005848483818110610aae57610aae6129fe565b9050602002810190610ac09190612a14565b604051610ace929190612a5a565b90815260405160209181900382019020805460018101825560009182529190200182905580610afc81612a80565b915050610a92565b5060078054906000610b1583612a80565b9190505550336001600160a01b0316817f8b7fa420224eb662d5fda1620deab4b0382012c642a8510e687959052a29ef8d8f8f8b8b604051610b5a9493929190612a99565b60405180910390a39c9b505050505050505050505050565b610b7a611d07565b600955565b815160208184018101805160058252928201918501919091209190528054829081106104c257600080fd5b6000878152600160208190526040909120908101546001600160a01b03163314610c055760405162461bcd60e51b815260206004820152600c60248201526b2737ba10383937bb34b232b960a11b6044820152606401610725565b8615610c5457600954871015610c4c5760405162461bcd60e51b815260206004820152600c60248201526b5261746520746f6f206c6f7760a01b6044820152606401610725565b600681018790555b60098101805460ff19168715151790558315610c7b5760038101610c79858783612ae0565b505b8115610c925760048101610c90838583612ae0565b505b600681015460408051918252871515602083015289917fee82bddf4ee320ad7bc2d70c4cfeeed46bad1eb45488a9a70c292bb9a24f1ebd910160405180910390a25050505050505050565b60008281526001602081905260408220908101546001600160a01b0316610d3a5760405162461bcd60e51b815260206004820152601160248201527014d95c9d9a58d9481b9bdd08199bdd5b99607a1b6044820152606401610725565b828160060154610d4a9190612ba0565b9150505b92915050565b6000818152600160205260408120600d8101548203610d765750600092915050565b80600d015481600c0154610d8a9190612bb7565b9392505050565b610d99611d07565b6001600160a01b038116610de15760405162461bcd60e51b815260206004820152600f60248201526e496e76616c6964206164647265737360881b6044820152606401610725565b600880546001600160a01b0319166001600160a01b0383169081179091556040519081527fe2605215ebef56288c86de4004ac7c45e36fd52846ce4671dfb62ddbd70f59e69060200160405180910390a150565b606060058383604051610e49929190612a5a565b9081526040805191829003602090810183208054808302850183019093528284529190830182828015610e9b57602002820191906000526020600020905b815481526020019060010190808311610e87575b5050505050905092915050565b610eb0611d07565b610eba6000611d34565b565b600654600080805b600654811015610f21576001600060068381548110610ee557610ee56129fe565b90600052602060002001548152602001908152602001600020600a015483610f0d9190612bd9565b925080610f1981612a80565b915050610ec4565b506006546000906001600160401b03811115610f3f57610f3f612305565b604051908082528060200260200182016040528015610f68578160200160208202803683370190505b5090506000805b6006548110156110675760006001600060068481548110610f9257610f926129fe565b600091825260208083209091015483528201929092526040018120600101546001600160a01b03169150805b8481101561101357826001600160a01b0316868281518110610fe257610fe26129fe565b60200260200101516001600160a01b0316036110015760019150611013565b8061100b81612a80565b915050610fbe565b5080611052578185858151811061102c5761102c6129fe565b6001600160a01b03909216602092830291909101909101528361104e81612a80565b9450505b5050808061105f90612a80565b915050610f6f565b508092505050909192565b6008546001600160a01b031633148061109557506000546001600160a01b031633145b6110d25760405162461bcd60e51b815260206004820152600e60248201526d139bdd08185d5d1a1bdc9a5e995960921b6044820152606401610725565b6000868152600160205260408120600a81018054919287926110f5908490612bd9565b9091555050600b8101805490600061110c83612a80565b909155505060018101546001600160a01b03166000908152600460205260408120805487929061113d908490612bd9565b9250508190555060036000876001600160a01b03166001600160a01b031681526020019081526020016000206040518060c00160405280898152602001886001600160a01b0316815260200185815260200184815260200187815260200186151581525090806001815401808255809150506001900390600052602060002090600602016000909190919091506000820151816000015560208201518160010160006101000a8154816001600160a01b0302191690836001600160a01b0316021790555060408201518160020155606082015181600301556080820151816004015560a08201518160050160006101000a81548160ff0219169083151502179055505050856001600160a01b0316877fcb6423d7102200d403f38cefc45b39516d189ffca6d50af7e14706a1bf7ce4dd87876040516112889291909182521515602082015260400190565b60405180910390a350505050505050565b6001600160a01b0381166000908152600260209081526040918290208054835181840281018401909452808452606093928301828280156112f957602002820191906000526020600020905b8154815260200190600101908083116112e5575b50505050509050919050565b6001600160a01b0381166000908152600360209081526040808320805482518185028101850190935280835260609492939192909184015b828210156113b35760008481526020908190206040805160c08101825260068602909201805483526001808201546001600160a01b03168486015260028201549284019290925260038101546060840152600481015460808401526005015460ff16151560a0830152908352909201910161133d565b505050509050919050565b60018160ff16101580156113d6575060058160ff1611155b61140f5760405162461bcd60e51b815260206004820152600a602482015269526174696e6720312d3560b01b6044820152606401610725565b6000828152600160208190526040909120908101546001600160a01b031661146d5760405162461bcd60e51b815260206004820152601160248201527014d95c9d9a58d9481b9bdd08199bdd5b99607a1b6044820152606401610725565b336000908152600360205260408120815b81548110156114cc578582828154811061149a5761149a6129fe565b906000526020600020906006020160000154036114ba57600192506114cc565b806114c481612a80565b91505061147e565b508161151a5760405162461bcd60e51b815260206004820152601e60248201527f4d757374207573652073657276696365206265666f726520726174696e6700006044820152606401610725565b611525846014612bec565b60ff1683600c01600082825461153b9190612bd9565b9091555050600d8301805490600061155283612a80565b909155505060405160ff85168152339086907f1137ca995897283d2fbf2ebc25887370bf949a29c225af34f858e7ec1c69166d9060200160405180910390a35050505050565b600360205281600052604060002081815481106115b457600080fd5b60009182526020909120600690910201805460018201546002830154600384015460048501546005909501549396506001600160a01b03909216945092909160ff1686565b606060006116078385612bd9565b60065490915081111561161957506006545b60006116258583612c0f565b6001600160401b0381111561163c5761163c612305565b604051908082528060200260200182016040528015611665578160200160208202803683370190505b509050845b828110156116ca5760068181548110611685576116856129fe565b906000526020600020015482878361169d9190612c0f565b815181106116ad576116ad6129fe565b6020908102919091010152806116c281612a80565b91505061166a565b50949350505050565b6006546060906000906001600160401b038111156116f3576116f3612305565b60405190808252806020026020018201604052801561171c578160200160208202803683370190505b50905060008085858080601f01602080910402602001604051908101604052809392919081815260200183838082843760009201829052509394505050505b600654811015611897576000600160006006848154811061177e5761177e6129fe565b90600052602060002001548152602001908152602001600020905060008160020180546117aa906127fe565b80601f01602080910402602001604051908101604052809291908181526020018280546117d6906127fe565b80156118235780601f106117f857610100808354040283529160200191611823565b820191906000526020600020905b81548152906001019060200180831161180657829003601f168201915b505050505090506118348185611d84565b15611882576006838154811061184c5761184c6129fe565b9060005260206000200154868681518110611869576118696129fe565b60209081029190910101528461187e81612a80565b9550505b5050808061188f90612a80565b91505061175b565b506000826001600160401b038111156118b2576118b2612305565b6040519080825280602002602001820160405280156118db578160200160208202803683370190505b50905060005b83811015611932578481815181106118fb576118fb6129fe565b6020026020010151828281518110611915576119156129fe565b60209081029190910101528061192a81612a80565b9150506118e1565b509695505050505050565b611945611ebe565b60008281526001602081815260409283902083516101e08101855281548152928101546001600160a01b031691830191909152600281018054929391929184019161198f906127fe565b80601f01602080910402602001604051908101604052809291908181526020018280546119bb906127fe565b8015611a085780601f106119dd57610100808354040283529160200191611a08565b820191906000526020600020905b8154815290600101906020018083116119eb57829003601f168201915b50505050508152602001600382018054611a21906127fe565b80601f0160208091040260200160405190810160405280929190818152602001828054611a4d906127fe565b8015611a9a5780601f10611a6f57610100808354040283529160200191611a9a565b820191906000526020600020905b815481529060010190602001808311611a7d57829003601f168201915b50505050508152602001600482018054611ab3906127fe565b80601f0160208091040260200160405190810160405280929190818152602001828054611adf906127fe565b8015611b2c5780601f10611b0157610100808354040283529160200191611b2c565b820191906000526020600020905b815481529060010190602001808311611b0f57829003601f168201915b5050509183525050600582015460209091019060ff166004811115611b5357611b5361205f565b6004811115611b6457611b6461205f565b81526020016006820154815260200160078201548152602001600882015481526020016009820160009054906101000a900460ff16151515158152602001600a8201548152602001600b8201548152602001600c8201548152602001600d8201548152602001600e8201805480602002602001604051908101604052809291908181526020016000905b82821015611c9a578382906000526020600020018054611c0d906127fe565b80601f0160208091040260200160405190810160405280929190818152602001828054611c39906127fe565b8015611c865780601f10611c5b57610100808354040283529160200191611c86565b820191906000526020600020905b815481529060010190602001808311611c6957829003601f168201915b505050505081526020019060010190611bee565b505050915250909392505050565b60068181548110611cb857600080fd5b600091825260209091200154905081565b611cd1611d07565b6001600160a01b038116611cfb57604051631e4fbdf760e01b815260006004820152602401610725565b611d0481611d34565b50565b6000546001600160a01b03163314610eba5760405163118cdaa760e01b8152336004820152602401610725565b600080546001600160a01b038381166001600160a01b0319831681178455604051919092169283917f8be0079c531659141344cd1fd0a4f28419497f9722a3daafe3b4186f6b6457e09190a35050565b60008151600003611d9757506001610d4e565b815183511015611da957506000610d4e565b60005b82518451611dba9190612c0f565b8111611e5e57600160005b8451811015611e3957848181518110611de057611de06129fe565b01602001516001600160f81b03191686611dfa8386612bd9565b81518110611e0a57611e0a6129fe565b01602001516001600160f81b03191614611e275760009150611e39565b80611e3181612a80565b915050611dc5565b508015611e4b57600192505050610d4e565b5080611e5681612a80565b915050611dac565b5060009392505050565b828054828255906000526020600020908101928215611eae579160200282015b82811115611eae5782518290611e9e908261293f565b5091602001919060010190611e88565b50611eba929150611f53565b5090565b604051806101e001604052806000801916815260200160006001600160a01b0316815260200160608152602001606081526020016060815260200160006004811115611f0c57611f0c61205f565b815260200160008152602001600081526020016000815260200160001515815260200160008152602001600081526020016000815260200160008152602001606081525090565b80821115611eba576000611f678282611f70565b50600101611f53565b508054611f7c906127fe565b6000825580601f10611f8c575050565b601f016020900490600052602060002090810190611d0491905b80821115611eba5760008155600101611fa6565b80356001600160a01b0381168114611fd157600080fd5b919050565b60008060408385031215611fe957600080fd5b611ff283611fba565b946020939093013593505050565b60006020828403121561201257600080fd5b5035919050565b6000815180845260005b8181101561203f57602081850181015186830182015201612023565b506000602082860101526020601f19601f83011685010191505092915050565b634e487b7160e01b600052602160045260246000fd5b6005811061209357634e487b7160e01b600052602160045260246000fd5b9052565b8e81526001600160a01b038e1660208201526101c0604082015260006120c16101c083018f612019565b82810360608401526120d3818f612019565b905082810360808401526120e7818e612019565b9150506120f760a083018c612075565b8960c08301528860e08301528761010083015261211961012083018815159052565b856101408301528461016083015283610180830152826101a08301529f9e505050505050505050505050505050565b60008083601f84011261215a57600080fd5b5081356001600160401b0381111561217157600080fd5b60208301915083602082850101111561218957600080fd5b9250929050565b803560058110611fd157600080fd5b60008083601f8401126121b157600080fd5b5081356001600160401b038111156121c857600080fd5b6020830191508360208260051b850101111561218957600080fd5b6000806000806000806000806000806000806101008d8f03121561220657600080fd5b6001600160401b038d35111561221b57600080fd5b6122288e8e358f01612148565b909c509a506001600160401b0360208e0135111561224557600080fd5b6122558e60208f01358f01612148565b909a5098506001600160401b0360408e0135111561227257600080fd5b6122828e60408f01358f01612148565b909850965061229360608e01612190565b955060808d0135945060a08d0135935060c08d013592506001600160401b0360e08e013511156122c257600080fd5b6122d28e60e08f01358f0161219f565b81935080925050509295989b509295989b509295989b565b6000602082840312156122fc57600080fd5b610d8a82611fba565b634e487b7160e01b600052604160045260246000fd5b604051601f8201601f191681016001600160401b038111828210171561234357612343612305565b604052919050565b600082601f83011261235c57600080fd5b81356001600160401b0381111561237557612375612305565b612388601f8201601f191660200161231b565b81815284602083860101111561239d57600080fd5b816020850160208301376000918101602001919091529392505050565b600080604083850312156123cd57600080fd5b82356001600160401b038111156123e357600080fd5b6123ef8582860161234b565b95602094909401359450505050565b80358015158114611fd157600080fd5b600080600080600080600060a0888a03121561242957600080fd5b8735965060208801359550612440604089016123fe565b945060608801356001600160401b038082111561245c57600080fd5b6124688b838c01612148565b909650945060808a013591508082111561248157600080fd5b5061248e8a828b01612148565b989b979a50959850939692959293505050565b600080604083850312156124b457600080fd5b50508035926020909101359150565b600080602083850312156124d657600080fd5b82356001600160401b038111156124ec57600080fd5b6124f885828601612148565b90969095509350505050565b6020808252825182820181905260009190848201906040850190845b8181101561253c57835183529284019291840191600101612520565b50909695505050505050565b60008060008060008060c0878903121561256157600080fd5b8635955061257160208801611fba565b945060408701359350612586606088016123fe565b92506080870135915060a087013590509295509295509295565b602080825282518282018190526000919060409081850190868401855b8281101561261657815180518552868101516001600160a01b0316878601528581015186860152606080820151908601526080808201519086015260a09081015115159085015260c090930192908501906001016125bd565b5091979650505050505050565b6000806040838503121561263657600080fd5b82359150602083013560ff8116811461264e57600080fd5b809150509250929050565b600081518084526020808501808196508360051b8101915082860160005b8581101561261657828403895261268f848351612019565b98850198935090840190600101612677565b6020815281516020820152600060208301516126c860408401826001600160a01b03169052565b5060408301516101e08060608501526126e5610200850183612019565b91506060850151601f19808685030160808701526127038483612019565b935060808701519150808685030160a08701526127208483612019565b935060a0870151915061273660c0870183612075565b60c087015160e087810191909152870151610100808801919091528701516101208088019190915287015191506101406127738188018415159052565b87015161016087810191909152870151610180808801919091528701516101a0808801919091528701516101c0808801919091528701518685039091018387015290506127c08382612659565b9695505050505050565b6000602082840312156127dc57600080fd5b81356001600160401b038111156127f257600080fd5b610d4a8482850161234b565b600181811c9082168061281257607f821691505b60208210810361283257634e487b7160e01b600052602260045260246000fd5b50919050565b6bffffffffffffffffffffffff198660601b168152838560148301376014930192830191909152603482015260540192915050565b60006001600160401b038084111561288757612887612305565b8360051b602061289881830161231b565b8681529185019181810190368411156128b057600080fd5b865b848110156128e4578035868111156128ca5760008081fd5b6128d636828b0161234b565b8452509183019183016128b2565b50979650505050505050565b601f82111561293a57600081815260208120601f850160051c810160208610156129175750805b601f850160051c820191505b8181101561293657828155600101612923565b5050505b505050565b81516001600160401b0381111561295857612958612305565b61296c8161296684546127fe565b846128f0565b602080601f8311600181146129a157600084156129895750858301515b600019600386901b1c1916600185901b178555612936565b600085815260208120601f198616915b828110156129d0578886015182559484019460019091019084016129b1565b50858210156129ee5787850151600019600388901b60f8161c191681555b5050505050600190811b01905550565b634e487b7160e01b600052603260045260246000fd5b6000808335601e19843603018112612a2b57600080fd5b8301803591506001600160401b03821115612a4557600080fd5b60200191503681900382131561218957600080fd5b8183823760009101908152919050565b634e487b7160e01b600052601160045260246000fd5b600060018201612a9257612a92612a6a565b5060010190565b606081528360608201528385608083013760006080858301015260006080601f19601f8701168301019050612ad16020830185612075565b82604083015295945050505050565b6001600160401b03831115612af757612af7612305565b612b0b83612b0583546127fe565b836128f0565b6000601f841160018114612b3f5760008515612b275750838201355b600019600387901b1c1916600186901b178355612b99565b600083815260209020601f19861690835b82811015612b705786850135825560209485019460019092019101612b50565b5086821015612b8d5760001960f88860031b161c19848701351681555b505060018560011b0183555b5050505050565b8082028115828204841417610d4e57610d4e612a6a565b600082612bd457634e487b7160e01b600052601260045260246000fd5b500490565b80820180821115610d4e57610d4e612a6a565b60ff8181168382160290811690818114612c0857612c08612a6a565b5092915050565b81810381811115610d4e57610d4e612a6a56fea2646970667358221220d50c2fe8ccd6a82de5b4fb8db6735c39226e51fe4271abcf4306cf1b0325960564736f6c63430008140033",
  "linkReferences": {},
  "deployedLinkReferences": {}
}